:1000000024C048C047C046C045C344C043C042C0E6
:1000100041C040C03FC03EC03DC03CC03BC03AC0F4
:1000200039C038C037C036C035C034C033C032C024
:1000300031C030C02FC02EC02DC01DC20102040827
:100040001020408004020108700311241FBECFEF6E
:10005000D2E0DEBFCDBF11E0A0E0B1E0ECE0FBE01C
:1000600002C005900D92A031B107D9F721E0A0E1BF
:10007000B1E001C01D92A737B207E1F710E0C5E279
:10008000D0E003C02197FE0139D5C432D107D1F7A2
:1000900050D33AC5B5CF482F30E020E08FEF51E381
:1000A000F901E15AFE4F9081892798E087FF09C046
:1000B000880F85279150D1F72F5F3F4F241780F38A
:1000C0000895880FF7CF382FE0E7F1E090E08FEF49
:1000D00041E3931769F02191822728E087FF06C04A
:1000E000880F84272150D1F79F5FF3CF880FFACF75
:1000F0000895ECE3F0E0E4919E2F909581110CC0FF
:100100002FB7F8948BB389238BBB8091630098231E
:10011000909363002FBF08958FB7F8942BB3E22B11
:10012000EBBB209163009223909363008FBF0895EF
:1001300028B1909113019295990F907E2F71922B77
:1001400098B999B1907C892B89B92E9A2E99FECFB6
:1001500086B197B10895CF93DF93DC011C96ED91A2
:10016000FC9126A137A12032310510F5A6A1B7A137
:10017000C6A1D7A120E230E02A1B3B0B4217530750
:1001800008F49A01DB01EC0FFD1FB9016E0F7F1F10
:10019000E617F70719F04D914193FACFDC011C9651
:1001A000ED91FC9186A197A1280F391F37A326A3B3
:1001B000DF91CF910895DC011C96ED91FC9186A111
:1001C00097A1809768F486A197A19C012F5F3F4F6C
:1001D00037A326A3E80FF91F608381E090E008951C
:1001E00090E080E008950F931F93CF93DF93EC018D
:1001F00068818FE491E0DFDF8C0169818FE491E019
:10020000DADF800F911FDF91CF911F910F91089539
:100210000895DC011C96ED91FC9120A131A182A1F1
:1002200093A12817390738F480A191A1E80FF91F8D
:10023000808190E008958FEF9FEF0895DC011C9678
:10024000ED91FC9120A131A182A193A1281739073A
:1002500060F480A191A19C012F5F3F4F31A320A3A7
:10026000E80FF91F808190E008958FEF9FEF0895C8
:10027000DC011C96ED91FC9182A193A120A131A1FA
:10028000821B930B0895CF93DF9300D0CDB7DEB7D9
:1002900080915E01843009F441C058F4813019F135
:1002A000F8F0823019F1833079F18FEF80935E019D
:1002B00012C0873009F43FC050F48530C9F1609115
:1002C0007301863091F78FE491E075DFEECF8930CE
:1002D000C9F18F3F51F70F900F90DF91CF910895A3
:1002E00060917201F0CF60911001EDCF809111010A
:1002F00090911201898380911101909112019A834A
:10030000CE01019670DFD1CF80911A0190911B012F
:10031000898380911A0190911B01F1CF8091140182
:100320009091150189838091140190911501E7CF77
:1003300060911901C8CF90917401809175019983E2
:100340008A83DECF60E1BFCF0F931F93CF93DF93FC
:10035000181619066CF48C018FE491E06FDF80931E
:100360005E01C1E0D0E00130110539F400936F0166
:10037000DF91CF911F910F9108958FE491E05EDF9F
:10038000FE01E35AFE4F81832196C017D1071CF46A
:10039000C031D10591F7C35ADE4F1982E7CFCF9311
:1003A000DF9300D01F92CDB7DEB71B829B819817D9
:1003B00098F41A82198229813A812A3C310540F445
:1003C000000029813A812F5F3F4F3A832983F3CF81
:1003D0009B819F5F9B83EACF0F900F900F90DF91DF
:1003E000CF910895E0915B01F0915C0180917201E1
:1003F000880F8093A2001092A1008FEF80A78CEB52
:100400008093A50081E080935D0184EA91E096A746
:1004100085A783E491E090AB87A70895CF93DF93FE
:10042000EB0156D38883CE01DF91CF910895FF92DF
:100430000F931F93CF93DF9387E08093700186E043
:1004400042DE8093760100E711E0D0E0C0E0F801E1
:10045000F1908F01CE013CD3F81619F06F2DCE012B
:100460003FD32196C730D10591F7DF91CF911F91EE
:100470000F91FF9008951F920F920FB60F921124C3
:100480002F933F934F935F936F937F938F939F939C
:10049000AF93BF93CF93EF93FF93C091A3008C2FA3
:1004A0008C7019F18FEF80934401809145019091F8
:1004B00046019F7790934601809345018091A30068
:1004C000846C8093A300FF91EF91CF91BF91AF9186
:1004D0009F918F917F916F915F914F913F912F915C
:1004E0000F900FBE0F901F901895C6FD28C08091E9
:1004F00045019091460197FD22C0C7FF6FC0C1FF23
:10050000AFC0209140013091410180914201909112
:1005100043012817390708F0A1C08091400190914C
:1005200041019C012F5F3F4F3093410120934001D7
:10053000845E9E4FFC0180818093A0004FC0C0FF6D
:1005400066C0809145019091460197FF29C0809136
:100550004501909146012091A0009695982F8827FB
:100560009795879588279370822B90934601809367
:100570004501E0914701F0914801309789F11092CF
:100580003D0110923C0160914401809145019091A0
:1005900046010995811124C087E08093A40093CF80
:1005A0008091A00090E09093460180934501809156
:1005B00044018F5F809344018091450190914601F1
:1005C000897F9927803F9105A1F6809145019091FF
:1005D00046019068909346018093450183E0DDCF0A
:1005E000C1FF10C01092430110924201E0914B01F3
:1005F000F0914C01309709F0099510924101109249
:100600004001ECCF10923F0110923E01E7CFC1FFB5
:1006100015C0E0914D01F0914E01309709F0099518
:100620008FEF8093440180914501909146019F771F
:10063000909346018093450180E443CFE0914901C6
:10064000F0914A01309761F310923D0110923C0104
:1006500080913E0190913F010995E2CF82E09DCFCC
:1006600080913E0190913F01809790F480913E01EE
:1006700090913F019C012F5F3F4F30933F012093AA
:100680003E012091A000845E9E4FFC012083A6CFF6
:1006900086E083CF1F920F920FB60F9211248F9393
:1006A0009F9385B78F7D85BF81B5806481BD809123
:1006B000160190911701892B49F0809116019091B4
:1006C00017010197909317018093160185B78062F7
:1006D00085BF9F918F910F900FBE0F901F9018951F
:1006E000EFE4F1E01382128288EE93E0A0E0B0E044
:1006F00084839583A683B78384E091E0918380838C
:100700008CE191E09587848710925D01E0E7F1E04C
:10071000108280E1818380E5828386E0838381E0AB
:1007200090E095838483EEE5F1E08FEF8083118A7A
:100730000895CF93DF9300D0CDB7DEB718ED1093B7
:10074000710091E090937300789480B7836080BFCC
:1007500083B7877F83BF83B7887F836083BF8091A0
:10076000C900887F8093C9008091CA008C7F816016
:100770008093CA008091C900877E8093C9008091D0
:10078000C900887F83608093C9008EB5887F8EBD45
:100790008FB58C7F81608FBD8EB5877E8EBD8EB507
:1007A000887F83608EBD80E18093670084EA8093B8
:1007B00068008CEF8093660085B1887F856085B97D
:1007C0002F9AF89410937100909373007894ECE34F
:1007D000F0E0E4919FB7F894209163008E2F80950C
:1007E0008223809363008AB3E82BEABB9FBF81E03A
:1007F00080DC84B78F708093100114BEF89410933E
:10080000710011BC78941A82BE016E5F7F4F90E038
:1008100080E004DE1A811982BE016F5F7F4F81E0A4
:1008200090E0FCDD8981803121F4FF24F3941730BE
:1008300009F0F12C40E7C42E41E0D42E10E000E096
:10084000C80146D1F60181936F010F5F1F4F07303A
:100850001105B1F780917001815035DC90917601DE
:10086000891302C0F11017C01092700180E18093CB
:10087000710180E58093720186E08093730181E0CD
:1008800090E09093750180937401D1DD8091100107
:1008900080618093100181E0A5DD0FEFFF24FA94C1
:1008A000EE24E39418ED80916F01882329F1E09103
:1008B0005E01EA30F8F4F0E0EF59FB4F80916F01F0
:1008C000099409C017C054C073C07AC095C0A2C0B3
:1008D000B0C0C4C00FC0833069F4D090600181E023
:1008E000DADBD81207C080915F01809372019FDD2F
:1008F00080E078DD10926F0180911801882399F2D1
:100900008091740190917501909317018093160165
:100910008091160190911701892B09F4D6C085B7F3
:10092000877E806185BF8EE803DC2F988091700000
:100930000093700080E0DDDBF89480917301982FC4
:10094000990F990F907287708864892B898310930F
:100950007100898181BD789485B7806285BF80915F
:10096000160190911701892B09F49AC08895F7CF49
:10097000813009F0BFCF809313018CE8D9DB81E08F
:100980000EDD38E0B32ED12CC12C8CE8D1DBC80EA3
:10099000D91E81E004DDBA94B110F7CF23E0D694DC
:1009A000C7942A95E1F7D0921201C0921101A2CF0B
:1009B000813009F09FCF10921B0110921A019ACF3B
:1009C000813009F097CF1092130198E0B92ED12C05
:1009D000C12C8DE8ADDBC80ED91E81E0E0DCBA94F5
:1009E000B110F7CF83E0D694C7948A95E1F7D092FF
:1009F0001501C09214017ECF833009F07BCFD090D7
:100A0000600181E048DBD81275CF80915F0180934F
:100A1000190170CF833009F06DCFD090600181E073
:100A20003ADBD81267CF80915F0180937301FFDCBE
:100A300061CF843009F05ECFD090610182E02BDB82
:100A4000D81258CF8091600190915F018927982733
:100A500089279093750180937401E9CF873009F05D
:100A600049CFD090640185E016DBD81216C0809182
:100A70005F01833591F4809160018C3471F4809131
:100A80006101853451F480916201853431F48091A3
:100A90006301803511F4E0921801F0925E012ACFD3
:100AA00085B78F7D85BFF8941093710011BC789441
:100AB00081E01FDB809170001092700084E06FDC99
:100AC0002F9A8EE835DB81E08DDC10921801EBCE99
:100AD000E199FECF9FBB8EBBE09A99278DB3089515
:100AE000262FE199FECF1CBA9FBB8EBB2DBB0FB644
:100AF000F894E29AE19A0FBE01960895EE0FFF1F57
:0C0B00000590F491E02D0994F894FFCFCB
:100B0C0000000000DB00AB0038011E0109010801E8
:00000001FF
